:0400000065EF00F0B8
:100018004980D8CF02F0E8CF03F0E0CF04F0FACF60
:1000280005F0FBCF06F0E9CF07F0EACF08F0E1CF03
:1000380009F0E2CF0AF0D9CF0BF0DACF0CF0F3CF0A
:100048000DF0F4CF0EF0F6CF0FF0F7CF10F0F8CF99
:1000580011F0F5CF12F049C013F04AC014F04BC0AC
:1000680015F04CC016F06DEC08F016C04CF015C039
:100078004BF014C04AF013C049F012C0F5FF11C08C
:10008800F8FF10C0F7FF0FC0F6FF0EC0F4FF0DC059
:10009800F3FF0CC0DAFF0BC0D9FF0AC0E2FF09C0AA
:1000A800E1FF08C0EAFF07C0E9FF06C0FBFF05C083
:1000B800FAFF04C0E0FF03C0E8FF02C0D8FF499080
:0600C8001000A5EF08F096
:100F00000048656C6C6F20576F726C642042726F82
:100F100027730A0D0000090E0E01FD6F170EB56F45
:100F20000F01219F9F869E84000E176E900E186EF3
:100F3000D00E196E030E1A6E24C028F025C029F0B9
:100F400026C02AF027C02BF0020ED890283629366A
:100F50002A362B36E82EF9D7040E28241B6E000EF5
:100F600029201C6E000E2A201D6E000E2B201E6EE6
:100F7000DCEC07F017C02DF018C02EF019C02FF0D0
:100F80001AC030F02DC09BFF9C6A2EC09CFF9E981B
:100F90009E9C9E8A9D9C9D889D8E0E01C59999CF91
:100FA0002CF099CF2CF0C58BBD9B000E476E000E28
:100FB000466E000E456E1200000E1F6E000E206E73
:100FC000000E216E000E226E1B501C101D101E10F4
:100FD000D8B42AD0010E236E06D0D8901B361C360A
:100FE0001D361E36232A1EAEF8D7D8901F3620365F
:100FF000213622361B50175C1C5018581D501958AA
:101000001E501A58D8A009D01B50175E1C50185AF1
:101010001D50195A1E501A5A1F80D8901E321D3268
:101020001C321B32232EE1D71FC017F020C018F04E
:1010300021C019F022C01AF012004750D8B426D0AF
:101040004550010D310EF324D96E000EF420DA6EF6
:10105000DF501B6E4706452A130E456402D0000E72
:10106000456E0A0E4718D8A403D0110EB4EC08F050
:101070001A50D8B403D01B50B4EC08F018C0D9FFF4
:1010800019C0DAFF1BC0DFFF010E1200000E1200B4
:10109000800E246E250E256E000E266E000E276E25
:1010A0008BEC07F0F28AF28EF28C010E186E0F0EA6
:1010B000196E90EC08F0600E186E000E196E010E9D
:1010C0001A6E1DEC08F00009D8B4F5D70A0EB4EC7E
:1010D00008F00D0EB4EC08F0EED70E01CDAB120007
:1010E000140E47601AD04650010D310EF324D96E0C
:1010F000000EF420DA6E99CFDFFF472A462A130E3E
:10110000466402D0000E466E100E4718D8A4120096
:101110009EA2FED7130E9A6E120099CF01F0120014
:101120000AD018C0F6FF19C0F7FF0800F550B4EC5C
:1011300008F0184A192A18C0F6FF19C0F7FF08006E
:10114000F5500009D8B41200ECD700EE31F0180EBB
:10115000EE6AE806FDE149904992000EF86E0F0E26
:10116000F76E000148EF08F0176E9EA2FED717C079
:041170009AFF1200D0
:020000040020DA
:10000000FF0FFF0FFF0FFF0FFF0FFF0FFF0FFF0F80
:020000040030CA
:0C0000008CFFFFF7ACCFFFFFFFFFFFFFFE
:00000001FF
