:040000005AEF00F0C3
:100008001F82FACF07F0FBCF08F0E9CF09F0EACF5B
:100018000AF0E1CF0BF0E2CF0CF0D9CF0DF0DACF38
:100028000EF0F3CF0FF0F4CF10F0F6CF11F0F7CFBA
:1000380012F0F8CF13F0F5CF14F01FC015F020C060
:1000480016F021C017F022C018F00E01CAAB08D074
:10005800CA9B4E0E026E200E016E79EC00F083787A
:1000680018C022F017C021F016C020F015C01FF0EC
:1000780014C0F5FF13C0F8FF12C0F7FF11C0F6FF58
:1000880010C0F4FF0FC0F3FF0EC0DAFF0DC0D9FF98
:100098000CC0E2FF0BC0E1FF0AC0EAFF09C0E9FF9C
:1000A80008C0FBFF07C0FAFF1F92110099EF00F08C
:1000B800100ED56E440ED66E19C01BF01AC01CF077
:1000C8001B1E1C1E1B4A1C2AFF0E1B241D6EFF0E26
:1000D8001C201E6E1E50D46E1DC0D3FF0E01D79F6C
:1000E800CA9BC28BBA8BD58E120001C003F002C026
:1000F80004F0031E041E034A042AFF0E0324056E9F
:10010800FF0E0420066E0650D46E05C0D3FF120001
:100118004E0E1A6E200E196E5CEC00F088988398CB
:10012800F28AF28EF28C0300FED71F901F92000114
:040138008CEF00F058
:020000040020DA
:10000000FF0FFF0FFF0FFF0FFF0FFF0FFF0FFF0F80
:020000040030CA
:0C0000008CFFFFF7ACCFFFFFFFFFFFFFFE
:00000001FF
