:0400000065EF00F0B8
:100018004980D8CF02F0E8CF03F0E0CF04F0FACF60
:1000280005F0FBCF06F0E9CF07F0EACF08F0E1CF03
:1000380009F0E2CF0AF0D9CF0BF0DACF0CF0F3CF0A
:100048000DF0F4CF0EF0F6CF0FF0F7CF10F0F8CF99
:1000580011F0F5CF12F049C013F04AC014F04BC0AC
:1000680015F04CC016F0E8EC08F016C04CF015C0BE
:100078004BF014C04AF013C049F012C0F5FF11C08C
:10008800F8FF10C0F7FF0FC0F6FF0EC0F4FF0DC059
:10009800F3FF0CC0DAFF0BC0D9FF0AC0E2FF09C0AA
:1000A800E1FF08C0EAFF07C0E9FF06C0FBFF05C083
:1000B800FAFF04C0E0FF03C0E8FF02C0D8FF499080
:0600C80010000BEF09F02F
:100F00000048656C6C6F20576F726C642042726F82
:090F100027730A0D000D0A000010
:100F1A000B0E0E01F86F100E8D6F0F0121910E014D
:100F2A009F879E85000E176E900E186ED00E196E52
:100F3A00030E1A6E24C028F025C029F026C02AF014
:100F4A0027C02BF0020ED890283629362A362B369F
:100F5A00E82EF9D7040E28241B6E000E29201C6ED9
:100F6A00000E2A201D6E000E2B201E6E24EC08F0A7
:100F7A0017C02DF018C02EF019C02FF01AC030F08B
:100F8A002DC09BFE0E019C6B2EC09CFE9E999E9DC1
:100F9A009E8B9D9D9D899D8FC59D99CE2CF099CE46
:100FAA002CF0C58FBD9F000E476E000E466E000ED8
:100FBA00456E1200240E186E000E196E1FC01AF02C
:100FCA00BDEC08F00009D8B438D01E50485CD8A04F
:100FDA0016D0FF0E206EFF0E216E4850226E236A35
:100FEA00205022262150232222501C24D96E23501D
:100FFA001D20DA6E000EDF6E000E486E1ED04850BD
:10100A00010DF3501C24D96EF4501D20DA6E24C051
:10101A00DFFF482A0D0E2418D8A4CCD7480648501A
:10102A00010DF3501C24D96EF4501D20DA6E000E07
:10103A00DF6E000E486E010E1200000E1200000E46
:10104A001F6E000E206E000E216E000E226E1B50C7
:10105A001C101D101E10D8B42AD0010E236E06D003
:10106A00D8901B361C361D361E36232A1EAEF8D7DC
:10107A00D8901F362036213622361B50175C1C505A
:10108A0018581D5019581E501A58D8A009D01B506C
:10109A00175E1C50185A1D50195A1E501A5A1F8092
:1010AA00D8901E321D321C321B32232EE1D71FC0AC
:1010BA0017F020C018F021C019F022C01AF012004F
:1010CA00800E246E250E256E000E266E000E276EEB
:1010DA008DEC07F0F28AF28EF28C010E186E0F0E6A
:1010EA00196E92EC08F0600E1C6E000E1D6E4D0E0D
:1010FA001E6E000E1F6EDFEC07F00009D8B4F3D79E
:10110A00600E186E000E196E92EC08F0150E186E2D
:10111A000F0E196E92EC08F0E6D715D018C0F6FF3C
:10112A0019C0F7FF000EF86E0E0EF76403D0080020
:10113A00F55005D0F6CFD9FFF7CFDAFFDF5018EC1C
:10114A0009F0184A192A18C0F6FF19C0F7FF000E4D
:10115A00F86E0E0EF76403D00800F55005D0F6CFEE
:10116A00D9FFF7CFDAFFDF500009D8B41200D6D77B
:10117A004750D8B426D04550010D310EF324D96E0C
:10118A00000EF420DA6EDF501B6E4706452A130E56
:10119A00456402D0000E456E0A0E4718D8A403D043
:1011AA00110E18EC09F01A50D8B403D01B5018ECE1
:1011BA0009F018C0D9FF19C0DAFF1BC0DFFF010E02
:1011CA001200000E12000E01CDAF1200140E47607D
:1011DA001AD04650010D310EF324D96E000EF420B8
:1011EA00DA6E99CEDFFF472A462A130E466402D0EA
:1011FA00000E466E100E4718D8A412009EA3FED702
:10120A00130E9A6F120099CE01F0120000EE31F01F
:10121A00180EEE6AE806FDE149904992000EF86E52
:10122A00000165EF08F0176E0E019EA3FDD717C0E7
:04123A009AFE120006
:020000040020DA
:10000000FF0FFF0FFF0FFF0FFF0FFF0FFF0FFF0F80
:020000040030CA
:0C0000008CFFFFF7ACCFFFFFFFFFFFFFFE
:00000001FF
